:1000000071C000008FC000008DC000008BC00000D8
:1000100089C0000087C0000085C0000083C00000C8
:1000200081C000007FC000007DC000007BC00000D8
:1000300079C0000077C0000075C0000073C00000E8
:1000400071C000006FC000006DC000006BC00000F8
:1000500069C0000067C0000065C0000063C0000008
:1000600061C00000CFC100001FC200005BC00000E3
:1000700059C0000057C0000055C0000053C0000028
:1000800051C000004FC000004DC000004BC0000038
:100090004FC200009FC2000045C0000043C00000E6
:1000A00041C000003FC000003DC000003BC0000058
:1000B00039C0000037C0000035C0000033C0000068
:1000C00031C000002FC000002DC00000C7C20000DA
:1000D00017C3000027C0000057C30000A7C30000DB
:1000E00021C0000011241FBECFEFD1E2DEBFCDBF83
:1000F00000E00CBF12E0A0E0B2E0ECEAF5E100E0C5
:100100000BBF02C007900D92AE35B107D9F722E0C0
:10011000AEE5B2E001C01D92A237B207E1F703D00D
:100120000C94D40A6DCF80E05AD078948CE192E0A0
:100130005ED7C0E0D0E00DE212E00F2EFCE6CF2E3D
:10014000F2E0DF2EF02D0F2EF6E5EF2EF2E0FF2E7F
:10015000F02DDF93CF93DF93CF931F930F9334D77B
:10016000219666D00F900F900F900F900F900F90E8
:10017000882369F0F60180819181E8D69F938F935F
:10018000FF92EF9221D70F900F900F900F90FFEFFB
:1001900029E688E1F15020408040E1F700C00000EE
:1001A000D8CFCF93DF931F92CDB7DEB7BE016F5F7D
:1001B0007F4F80915E0290915F02FDD08111F6CF5A
:1001C000898190E00F90DF91CF910895682F809101
:1001D0005E0290915F02CAD080E090E008958F9215
:1001E0009F92AF92CF92EF920F93812C912C6894B3
:1001F000AA24A7F86894CC24C7F8E12C00E023E0F7
:1002000040E051EE60E070E01BD090935F0280937D
:100210005E02ECE6F2E086E092E0918380839383D5
:1002200082830F91EF90CF90AF909F908F90089521
:1002300080915E0290915F02DAD091E08927089563
:100240002F923F924F925F926F927F928F929F92E6
:10025000AF92CF92EF92FF920F931F93CF93DF93C2
:10026000CDB7DEB7F82E2A013B0188E090E042D5F9
:100270008C018F2D90E0880F991FFC01E05AFD4FF3
:1002800011830083FC01EC5EFD4F80819181D801D8
:100290008D939C936C2D70E084E090E011D51C014F
:1002A00061E070E086E090E00BD57C014C2DB1015F
:1002B00001D3F801F582E4826A2D70E084E090E0D9
:1002C000FFD41C0161E070E086E090E0F9D47C018D
:1002D0004A2DB101EFD2D8011396FC92EE921297FB
:1002E00017969C928E921697FFB6F894ED91FC911A
:1002F000119736978081826080838D909C90C30196
:10030000B201EDD320E030E040E051E476D49B012F
:10031000AC0160E074E284E79BE44DD320E030E080
:1003200040E85FE3E3D2AFD3F40132976083D801B2
:10033000ED91FC911197359788E98083ED91FC91BF
:10034000349786E08083FFBEC801DF91CF911F9173
:100350000F91FF90EF90CF90AF909F908F907F90F4
:100360006F905F904F903F902F900895CF93DF93C1
:10037000EC01EA81FB81938182812581981B922384
:1003800084819817A1F0938126952923A081B181BA
:10039000A20FB11D6C939F5F258192239383E88107
:1003A000F981359780818062808380E001C082E09E
:1003B000DF91CF910895DC011496ED91FC91159792
:1003C00093818281981789F092818581869589230E
:1003D000A081B181A80FB11D8C91DB018C939F5F2F
:1003E00085819823928380E0089583E00895DC015D
:1003F0001496ED91FC9115972381928181E0291348
:1004000080E008951F920F920FB60F9211240BB641
:100410000F922F933F934F935F936F937F938F939D
:100420009F93AF93BF93CF93DF93EF93FF93A091ED
:100430006002B0916102109711F16091C6001496AC
:10044000ED91FC911597938182812581981B9223D0
:100450008481981761F0838126952823C081D181FA
:10046000C20FD11D68838F5F958189238383169680
:10047000ED91FC911797309711F0CD011995FF91EF
:10048000EF91DF91CF91BF91AF919F918F917F912C
:100490006F915F914F913F912F910F900BBE0F90F5
:1004A0000FBE0F901F9018951F920F920FB60F92CC
:1004B00011240BB60F922F938F939F93AF93BF93FB
:1004C000EF93FF93E0916002F09161023097B9F0F1
:1004D0000280F381E02D938182819817B1F092819F
:1004E0008581282F26952923A081B181A20FB11DD6
:1004F0002C919F5F892382832093C6000BC0E1EC7F
:10050000F0E080818F7D808305C0E1ECF0E08081A8
:100510008F7D8083FF91EF91BF91AF919F918F91DC
:100520002F910F900BBE0F900FBE0F901F9018953C
:100530001F920F920FB60F9211240BB60F922F93AA
:100540003F934F935F936F937F938F939F93AF935B
:10055000BF93CF93DF93EF93FF93A0916202B0918B
:100560006302109711F16091CE001496ED91FC9109
:100570001597938182812581981B922384819817F6
:1005800061F0838126952823C081D181C20FD11DBE
:1005900068838F5F9581892383831696ED91FC9103
:1005A0001797309711F0CD011995FF91EF91DF91D9
:1005B000CF91BF91AF919F918F917F916F915F91FB
:1005C0004F913F912F910F900BBE0F900FBE0F9048
:1005D0001F9018951F920F920FB60F9211240BB611
:1005E0000F922F938F939F93AF93BF93EF93FF93AC
:1005F000E0916202F09163023097B9F00280F381DA
:10060000E02D938182819817B1F092818581282F06
:1006100026952923A081B181A20FB11D2C919F5F46
:10062000892382832093CE000BC0E9ECF0E0808127
:100630008F7D808305C0E9ECF0E080818F7D808331
:10064000FF91EF91BF91AF919F918F912F910F905B
:100650000BBE0F900FBE0F901F9018951F920F9218
:100660000FB60F9211240BB60F922F933F934F9317
:100670005F936F937F938F939F93AF93BF93CF932A
:10068000DF93EF93FF93A0916402B09165021097FE
:1006900011F16091D6001496ED91FC91159793811C
:1006A00082812581981B92238481981761F0838130
:1006B00026952823C081D181C20FD11D68838F5F09
:1006C0009581892383831696ED91FC911797309736
:1006D00011F0CD011995FF91EF91DF91CF91BF916D
:1006E000AF919F918F917F916F915F914F913F91CA
:1006F0002F910F900BBE0F900FBE0F901F9018956B
:100700001F920F920FB60F9211240BB60F922F93D8
:100710008F939F93AF93BF93EF93FF93E091640206
:10072000F09165023097B9F00280F381E02D93815A
:1007300082819817B1F092818581282F26952923EF
:10074000A081B181A20FB11D2C919F5F892382836B
:100750002093D6000BC0E1EDF0E080818F7D808397
:1007600005C0E1EDF0E080818F7D8083FF91EF9106
:10077000BF91AF919F918F912F910F900BBE0F90D2
:100780000FBE0F901F9018951F920F920FB60F92E9
:1007900011240BB60F922F933F934F935F936F9358
:1007A0007F938F939F93AF93BF93CF93DF93EF93F9
:1007B000FF93A0916602B0916702109711F16091CA
:1007C00036011496ED91FC911597938182812581D4
:1007D000981B92238481981761F0838126952823A2
:1007E000C081D181C20FD11D68838F5F958189231C
:1007F00083831696ED91FC911797309711F0CD01F8
:100800001995FF91EF91DF91CF91BF91AF919F919A
:100810008F917F916F915F914F913F912F910F90A9
:100820000BBE0F900FBE0F901F9018951F920F9246
:100830000FB60F9211240BB60F922F938F939F93A5
:10084000AF93BF93EF93FF93E0916602F09167023D
:100850003097B9F00280F381E02D9381828198175F
:10086000B1F092818581282F26952923A081B1811D
:10087000A20FB11D2C919F5F8923828320933601A3
:100880000BC0E1E3F1E080818F7D808305C0E1E36F
:10089000F1E080818F7D8083FF91EF91BF91AF91D7
:1008A0009F918F912F910F900BBE0F900FBE0F90C5
:1008B0001F901895FC01411101C03DD3842F90E099
:1008C0009C012150310982239323892B09F033D3D2
:1008D000413808F030D3128213824483440F4150D0
:1008E00045837183608380E090E008955058BB2772
:1008F000AA270ED048C139D130F03ED120F031F4D2
:100900009F3F11F41EF42EC10EF4E095E7FB24C1C5
:10091000E92F4AD180F3BA17620773078407950756
:1009200018F071F49EF562C10EF4E0950B2EBA2F0B
:10093000A02D0B01B90190010C01CA01A0011124E5
:10094000FF27591B99F0593F50F4503E68F11A1691
:10095000F040A22F232F342F4427585FF3CF469522
:1009600037952795A795F0405395C9F77EF41F1644
:10097000BA0B620B730B840BBAF09150A1F0FF0F0E
:10098000BB1F661F771F881FC2F70EC0BA0F621FFA
:10099000731F841F48F4879577956795B795F795EA
:1009A0009E3F08F0B3CF9395880F08F09927EE0F7C
:1009B0009795879508950CD0E6C0DED040F0D5D04D
:1009C00030F021F45F3F19F0C7C0511110C1CAC007
:1009D000EBD098F39923C9F35523B1F3951B550B2D
:1009E000BB27AA2762177307840738F09F5F5F4F02
:1009F000220F331F441FAA1FA9F333D00E2E3AF043
:100A0000E0E830D091505040E695001CCAF729D05C
:100A1000FE2F27D0660F771F881FBB1F26173707AB
:100A20004807AB07B0E809F0BB0B802DBF01FF27DB
:100A300093585F4F2AF09E3F510568F08DC0D7C094
:100A40005F3FECF3983EDCF3869577956795B79515
:100A5000F7959F5FC9F7880F911D9695879597F930
:100A60000895E1E0660F771F881FBB1F62177307A9
:100A70008407BA0720F0621B730B840BBA0BEE1FBE
:100A800088F7E095089598D088F09F5790F0B92F97
:100A90009927B751A0F0D1F0660F771F881F991FD3
:100AA0001AF0BA95C9F712C0B13081F09FD0B1E009
:100AB00008959CC0672F782F8827B85F39F0B93F19
:100AC000CCF3869577956795B395D9F73EF49095D5
:100AD0008095709561957F4F8F4F9F4F0895E89453
:100AE00009C097FB3EF490958095709561957F4F76
:100AF0008F4F9F4F9923A9F0F92F96E9BB27939524
:100B0000F695879577956795B795F111F8CFFAF433
:100B1000BB0F11F460FF1BC06F5F7F4F8F4F9F4F64
:100B200016C0882311F096E911C0772321F09EE8C2
:100B3000872F762F05C0662371F096E8862F70E028
:100B400060E02AF09A95660F771F881FDAF7880F02
:100B50009695879597F9089597F99F6780E870E0D3
:100B600060E008959FEF80EC089500240A94161623
:100B7000170618060906089500240A94121613068B
:100B8000140605060895092E0394000C11F4882319
:100B900052F0BB0F40F4BF2B11F460FF04C06F5F35
:100BA0007F4F8F4F9F4F089557FD9058440F551F0B
:100BB00059F05F3F71F04795880F97FB991F61F0DF
:100BC0009F3F79F087950895121613061406551F56
:100BD000F2CF4695F1DF08C0161617061806991FC2
:100BE000F1CF86957105610508940895E894BB27B7
:100BF00066277727CB0197F908950BD0C4CFB5DFCF
:100C000028F0BADF18F0952309F0A6CFABCF112456
:100C1000EECFCADFA0F3959FD1F3950F50E0551F9B
:100C2000629FF001729FBB27F00DB11D639FAA2741
:100C3000F00DB11DAA1F649F6627B00DA11D661F90
:100C4000829F2227B00DA11D621F739FB00DA11DB1
:100C5000621F839FA00D611D221F749F3327A00D6B
:100C6000611D231F849F600D211D822F762F6A2F07
:100C700011249F5750408AF0E1F088234AF0EE0F8C
:100C8000FF1FBB1F661F771F881F91505040A9F799
:100C90009E3F510570F060CFAACF5F3FECF3983EC6
:100CA000DCF3869577956795B795F795E7959F5F00
:100CB000C1F7FE2B880F911D9695879597F908959A
:100CC0000F931F93CF93DF93869F8001879F100D13
:100CD000969F100D1124C8010DD0EC01009721F052
:100CE000A80160E070E02BD1CE01DF91CF911F9180
:100CF0000F9108950F931F93CF93DF938230910547
:100D000010F482E090E0E0916A02F0916B0220E042
:100D100030E0A0E0B0E0309719F1408151810281CC
:100D2000138148175907C8F08417950769F410977D
:100D300031F012960C93129713961C9327C00093D0
:100D40006A0210936B0222C02115310519F0421777
:100D5000530718F49A01BD01EF01DF01F801DBCF61
:100D600021153105F9F0281B390B2430310580F4A9
:100D70008A819B816115710521F0FB019383828338
:100D800004C090936B0280936A02FE01329644C0C5
:100D9000FE01E20FF31F81939193225031093983B1
:100DA00028833AC02091680230916902232B41F4D4
:100DB000209102023091030230936902209368026D
:100DC00020910002309101022115310541F42DB727
:100DD0003EB74091040250910502241B350BE0916F
:100DE0006802F0916902E217F307A0F42E1B3F0B93
:100DF0002817390778F0AC014E5F5F4F241735078D
:100E000048F04E0F5F1F5093690240936802819330
:100E1000919302C0E0E0F0E0CF01DF91CF911F910C
:100E20000F910895CF93DF93009709F481C0FC01DF
:100E3000329713821282A0916A02B0916B021097CE
:100E400081F420813181820F931F209168023091BB
:100E500069022817390751F5F0936902E093680297
:100E600067C0ED0120E030E0CE17DF0740F44A8193
:100E70005B819E0141155105F1F0EA01F5CFD38365
:100E8000C28340815181840F951FC817D90759F437
:100E900088819981840F951F0296918380838A812E
:100EA0009B81938382832115310529F4F0936B0292
:100EB000E0936A023DC0E901FB83EA8349915991BD
:100EC000C40FD51FEC17FD0761F480819181840F59
:100ED000951F0296E90199838883828193819B8380
:100EE0008A83E0E0F0E012968D919C911397009731
:100EF00019F0FD01DC01F7CF8D919C9111979D01B7
:100F00002E5F3F4F820F931F20916802309169023C
:100F10002817390769F4309729F410926B02109260
:100F20006A0202C013821282B0936902A09368021F
:100F3000DF91CF91089581E090E0F89435C3DC0112
:100F400001C06D9341505040E0F70895CF93DF9377
:100F5000EC012B8120FF33C026FF0AC02F7B2B839F
:100F60008E819F8101969F838E838A8190E029C024
:100F700022FF0FC0E881F9818081082E000C990BB7
:100F8000009719F420622B831AC03196F983E88305
:100F90000EC0EA85FB85199597FF09C02B81019644
:100FA00011F080E201C080E1822B8B8308C02E818A
:100FB0003F812F5F3F4F3F832E83992702C08FEFE2
:100FC0009FEFDF91CF910895CF93DF93CDB7DEB739
:100FD000AE014A5F5F4FFA0161917191AF0180915B
:100FE0006E0290916F0233D0DF91CF9108950F93ED
:100FF0001F93CF93DF93E0916E02F0916F022381F4
:1010000021FF1BC08C01D0E0C0E0F80181918F016D
:1010100060916E0270916F02DB011896ED91FC9168
:101020001997882331F01995892B79F3DFEFCFEFEA
:10103000ECCF8AE01995892B19F08FEF9FEF02C052
:101040008D2F9C2FDF91CF911F910F9108952F929B
:101050003F924F925F926F927F928F929F92AF9248
:10106000BF92CF92DF92EF92FF920F931F93CF9395
:10107000DF93CDB7DEB72B970FB6F894DEBF0FBE68
:10108000CDBF6C017B018A01FC011782168283812E
:1010900081FFBFC1CE0101963C01F6019381F701AA
:1010A00093FD859193FF81917F01882309F4ADC160
:1010B000853239F493FD859193FF81917F018532CB
:1010C00021F4B60190E0D6D1E8CF912C212C312C1F
:1010D000FFE1F315D8F08B3279F038F4803279F0F3
:1010E0008332A1F4232D20611DC08D3261F0803345
:1010F00069F4232D216016C0832D8260382EE32DE4
:10110000E4603E2E2AC0F32DF8601DC037FC2DC0D0
:1011100020ED280F2A3040F08E32B9F436FC75C12C
:10112000232D2064322E19C036FE06C08AE0989E18
:10113000200D1124922E11C0EAE02E9E200D1124C4
:10114000222EF32DF0623F2E08C08C3621F4832D21
:101150008068382E02C0883641F4F70193FD8591EE
:1011600093FF81917F018111B3CF982F9F7D95547B
:10117000933028F40C5F1F4F9FE399830DC0833693
:1011800031F0833771F0833509F055C020C0F80184
:10119000808189830E5F1F4F88248394912C530193
:1011A00012C02801F2E04F0E511CF801A080B1805E
:1011B00036FE03C0692D70E002C06FEF7FEFC501FE
:1011C0004ED14C018201F32DFF773F2E15C028012F
:1011D00022E0420E511CF801A080B18036FE03C00F
:1011E000692D70E002C06FEF7FEFC5012DD14C017A
:1011F000F32DF0683F2E820133FC19C0822D90E060
:1012000088169906A0F4B60180E290E033D12A94C2
:10121000F5CFF50137FC859137FE81915F01B6016D
:1012200090E028D121102A9421E0821A910881149B
:10123000910479F7E1C0843611F0893639F5F80167
:1012400037FE07C060817181828193810C5F1F4FDF
:1012500008C060817181072E000C880B990B0E5F0E
:101260001F4FF32DFF763F2E97FF09C09095809575
:10127000709561957F4F8F4F9F4FF0683F2E2AE00A
:1012800030E0A30133D1882E861844C0853731F46D
:10129000232D2F7EB22E2AE030E025C0932D997F9A
:1012A000B92E8F36C1F018F4883579F0AEC080378A
:1012B00019F0883721F0A9C0E92FE061BE2EB4FEF5
:1012C0000DC0FB2DF460BF2E09C034FE0AC0292FCB
:1012D0002660B22E06C028E030E005C020E130E0F4
:1012E00002C020E132E0F801B7FE07C060817181E1
:1012F000828193810C5F1F4F06C06081718180E005
:1013000090E00E5F1F4FA301F1D0882E8618FB2DB1
:10131000FF773F2E36FE0DC0232D2E7FA22E89147F
:1013200058F434FE0BC032FC09C0832D8E7EA82EEB
:1013300005C0B82CA32C03C0B82C01C0B92CA4FE46
:101340000FC0FE01E80DF11D8081803321F49A2D3C
:10135000997EA92E09C0A2FE06C0B394B39404C01E
:101360008A2D867809F0B394A3FC10C0A0FE06C0B5
:10137000B21480F4280C922C9B180DC0B21458F4AF
:10138000B60180E290E076D0B394F8CFB21418F4AE
:101390002B1802C0982C212CA4FE0FC0B60180E3AC
:1013A00090E068D0A2FE16C0A1FC03C088E790E0E0
:1013B00002C088E590E0B6010CC08A2D867851F015
:1013C000A1FE02C08BE201C080E2A7FC8DE2B60163
:1013D00090E050D0891430F4B60180E390E04AD018
:1013E0009A94F8CF8A94F301E80DF11D8081B6013B
:1013F00090E040D08110F6CF222009F44ECEB60105
:1014000080E290E037D02A94F7CFF6018681978169
:1014100002C08FEF9FEF2B960FB6F894DEBF0FBE82
:10142000CDBFDF91CF911F910F91FF90EF90DF9093
:10143000CF90BF90AF909F908F907F906F905F9074
:101440004F903F902F900895FC010590615070409F
:101450000110D8F7809590958E0F9F1F0895FC017D
:101460006150704001900110D8F7809590958E0FD3
:101470009F1F08950F931F93CF93DF93FB01238149
:1014800021FD03C08FEF9FEF2CC022FF16C04681C5
:101490005781248135814217530744F4A081B181DB
:1014A0009D012F5F3F4F318320838C9326813781AD
:1014B0002F5F3F4F3783268314C08B01EC01FB0164
:1014C0000084F185E02D1995892BE1F6D801169657
:1014D0008D919C911797019617969C938E931697D2
:1014E000CE01DF91CF911F910F910895FA01AA27A4
:1014F000283051F1203181F1E8946F936E7F6E5F57
:101500007F4F8F4F9F4FAF4FB1E03ED0B4E03CD004
:10151000670F781F891F9A1FA11D680F791F8A1FE7
:10152000911DA11D6A0F711D811D911DA11D20D04E
:1015300009F468943F912AE0269F11243019305D08
:101540003193DEF6CF010895462F4770405D4193F9
:10155000B3E00FD0C9F7F6CF462F4F70405D4A3346
:1015600018F0495D31FD4052419302D0A9F7EACF0E
:10157000B4E0A6959795879577956795BA95C9F73D
:1015800000976105710508959B01AC010A2E069430
:101590005795479537952795BA95C9F7620F731FE9
:0C15A000841F951FA01D0895F894FFCF34
:1015AC000000720220000000000300000000E600B2
:1015BC00D1000000C600CE00D600360150726F6715
:1015CC0072616D2053746172746564210054686596
:1015DC0020636F756E7465722076616C75653A2048
:1015EC002530356420616E6420696E206865782032
:0E15FC00253034580A002323233E25630A00BD
:00000001FF
